:1000000045C0000061C000005FC000005DC000008E
:100010005BC0000059C0000057C0000055C0000080
:1000200053C0000051C000004FC000004DC0000090
:100030004BC0000049C0000047C0000045C00000A0
:1000400094C0000041C00000C7C000003DC00000D7
:100050003BC0000039C0000037C0000035C00000C0
:1000600033C0000031C000002FC000002DC00000D0
:100070002BC0000029C0000027C0000025C00000E0
:1000800023C0000021C000001FC0000011241FBEBB
:10009000CFEFD0E1DEBFCDBF11E0A0E0B1E0ECEBEF
:1000A000F8E400E00BBF02C007900D92AE30B1073C
:1000B000D9F722E0AEE0B1E001C01D92AC31B20749
:1000C000E1F703D00C945C249BCF60E875E280E0FC
:1000D00090E094D081E090E0FFD06ED078940E94C0
:1000E00064222FEF83ED90E3215080409040E1F7B0
:1000F00000C0000080E090E0C5D0892B19F080E0BE
:1001000090E0D4D0C0910000C43719F40E9464225A
:1001100009C0CA3719F40E94A92109C0C73711F4D0
:1001200007D40AC0C33719F40E94E90E0AC0C136C9
:1001300019F40E94EA0E0AC0C43619F40E949912FA
:100140000AC0C13719F40E949A120AC0C53619F4C0
:100150000E949C17CFCFCA3619F40E94971CCACFB1
:10016000C53741F60E941F1FC5CF1F920F920FB6D1
:100170000F9211248F939F93809110019091110100
:100180008130910531F00196909311018093100117
:100190000AC0109211011092100181E090E090933A
:1001A0000F0180930E0186E082BF9F918F910F9087
:1001B0000FBE0F901F90189584E083BF81E087BF2A
:1001C0000895CF93C82F8A3011F48DE0FADF5D9B3C
:1001D000FECFCCB9CF9108951F920F920FB60F9218
:1001E00011248F938CB18093930181E0809312014D
:1001F0008F910F900FBE0F901F901895DC01CB01CF
:10020000880F991FAA1FBB1F880F991FAA1FBB1F0A
:100210009C01AD01220F331F441F551F60E074E2A3
:1002200084EF90E00E943A242150310930939000ED
:1002300029B982E08BB988E98AB986E08093950074
:1002400080E091E090931902809318020895CF9373
:10025000C82F8A3011F48DE0FADF5D9BFECFCCB958
:10026000CF910895FC0190911201992341F0809162
:10027000930180831092120181E090E0089580E064
:1002800090E00895CF93DF93EC0180E090E0EADF07
:10029000009749F0809100008A3021F4888381E042
:1002A00090E001C08883DF91CF910895CF93DF93D1
:1002B000EC018881882329F02196C9DF8991811179
:1002C000FCCFDF91CF910895EBE9F0E0908195FFAD
:1002D000FDCF80939C00089590939800809399009F
:1002E00082E080939B0088E080939A0086E0809370
:1002F0009D0008952F923F924F925F926F927F924E
:100300008F929F92AF92BF92CF92DF92EF92FF9225
:100310000F931F93CF93DF93CDB7DEB7AC970FB694
:10032000F894DEBF0FBECDBF4D872E8757012296B2
:100330002FAD22972F872C963FAD2C97388B2E967A
:100340004FAD2E97498B68965FAD68975A8B6A962A
:100350006FAD6A976B8BA4966FACA497A6967FAC93
:10036000A697A9964EAC5FACA997E0967FADE097B3
:100370007C8BE2968FADE2978D8BEC969FADEC97E0
:100380009E8BEE96EFADEE97EF8BCF57DF4F288128
:100390003981C158D0403A872987C957DF4F388102
:1003A000C758D040388FC757DF4FC880C958D04092
:1003B000C557DF4F48815981CB58D0405E834D836C
:1003C000C357DF4F68817981CD58D0407C836B83E0
:1003D000CD56DF4FD880C359D040CB56DF4FE88091
:1003E000C559D040C956DF4F88819981C759D0403F
:1003F00098878F83C756DF4FE881F981C959D0406C
:10040000FA83E983C156DF4F9880CF59D040CF554A
:10041000DF4FF880C15AD040CD55DF4F288039805A
:10042000C35AD040CB55DF4F28813981C55AD040BF
:100430003C872B87B80180E090E00E94492321E7A8
:100440003DE34AE550E40E94AF230E941D23698FDB
:100450007A8F25966EAD7FAD259780E090E00E9463
:10046000492321E73DE34AE550E40E94AF230E947F
:100470001D236B8F7C8F61966EAD7FAD619780E0A1
:1004800090E00E94492321E73DE34AE550E40E94C1
:10049000AF230E941D236D8F7E8F6D966EAD7FAD55
:1004A0006D9780E090E00E94492321E73DE34AE513
:1004B00050E40E94AF230E941D236F8F78A3B201E6
:1004C00080E090E00E94492321E73DE34AE550E4C3
:1004D0000E94AF230E941D2369A37AA30CE211E0BE
:1004E000B8016419750980E090E00E94492321E772
:1004F0003DE34AE550E40E94AF230E941D236BA315
:100500007CA3E5966EAD7FADE59780E090E00E941C
:10051000492321E73DE34AE550E40E94AF230E94CE
:100520001D236DA37EA3C158DF4F68817981CF570A
:10053000D04080E090E00E94492321E73DE34AE576
:1005400050E40E94AF230E941D236FA378A74D8122
:100550005E81BA0180E090E00E94492321E73DE3FB
:100560004AE550E40E94AF230E941D236D8379A7C2
:10057000EF81F885BF0180E090E00E94492321E7E8
:100580003DE34AE550E40E94AF230E941D236F83A0
:100590007AA7B10180E090E00E94492321E73DE382
:1005A0004AE550E40E94AF230E941D236BA77CA75D
:1005B000B8016219730980E090E00E94492321E7A5
:1005C0003DE34AE550E40E94AF230E941D2360935F
:1005D0000502709306028B859C85880F991F880FF2
:1005E000991F880F991F2B853C85820F931F2981A6
:1005F0003A81220F331F220F331F220F331F4981ED
:100600005A81420F531F5A8349832B813C81220F09
:10061000331F220F331F220F331F6B817C81620F28
:10062000731F7C836B8329843A84220C331C220C35
:10063000331C220C331CE985FA852E0E3F1EE796EB
:100640004EAC5FACE797440C551C440C551C440C55
:10065000551CE7962EAD3FADE797420E531EAB9665
:100660000EAD1FADAB97000F111F000F111F000F34
:10067000111FAB964EAD5FADAB97040F151F6F9674
:10068000AEADBFAD6F97AA0FBB1FAA0FBB1FAA0FBE
:10069000BB1F6F966EAD7FAD6F97A60FB71F6396AA
:1006A0002EAD3FAD6397220F331F220F331F220F52
:1006B000331F6396EEADFFAD63972E0F3F1F279656
:1006C0004EAD5FAD2797440F551F440F551F440F84
:1006D000551F27966EAD7FAD2797460F571FB50163
:1006E000660F771F660F771F660F771FA60EB71E60
:1006F000E6E9F1E06FEF608361836EEF628360E7AC
:10070000638363E864836AE1658378E0768361E00C
:1007100067836D85608761876E8562876387698D72
:1007200064876A8D6587A686B78662E0608B818A5A
:10073000828A6F85638B648B6B8D658B6C8D668B0A
:10074000478B508F43E0418F4889428F438F5989AF
:10075000548F558F6D8D668F4E8D478F20A331A39B
:1007600024E022A35A8953A354A36B8965A366A3EB
:100770002F8D27A338A130A7A1A7B2A725E023A7D3
:1007800064A665A676A677A649A140AB5AA151AB4F
:1007900002AB13AB26E024AB6C8965AB66AB2D894D
:1007A00027AB20AF3DA131AF4EA142AF43AE54AE17
:1007B00027E025AF5E8956AF57AF6F896093D601AA
:1007C0006093D701EFA1E093D801F8A5F093D90188
:1007D0002092DA013092DB017093DC01288D2093A6
:1007E000DD012093DE01C092DF01C092E0013D8176
:1007F0003093E10149A54093E2015B815093E3010D
:100800006C816093E40129E02093E501D092E60138
:10081000D092E701E092E801E092E9017F817093D4
:10082000EA01EAA5E093EB01F981F093EC012A815A
:100830002093ED012AE02093EE019092EF01909237
:10084000F001F092F101F092F2013BA53093F30137
:100850004CA54093F4018093F5019093F6012BE0B1
:100860002093F7016092F8016092F9017092FA0109
:100870007092FB015BA15093FC016CA16093FD01A0
:100880008093FE019093FF012CE020930002909250
:10089000010290920202F0920302F092040280930D
:1008A000070290930802E8E9F1E049E052E080E0B5
:1008B00090E02191820F911DE417F507D1F7809503
:1008C0008093090206E911E00F2EFAE0CF2EF2E044
:1008D000DF2EF02D0F2EFBE9EF2EF12CF02DF7017E
:1008E000808180648083F80181918F01EDDC0C159B
:1008F0001D05A9F7EBE9F0E0808186FFFDCFAC96FE
:100900000FB6F894DEBF0FBECDBFDF91CF911F9120
:100910000F91FF90EF90DF90CF90BF90AF909F909E
:100920008F907F906F905F904F903F902F900895A1
:100930002F923F924F925F926F927F928F929F92EF
:10094000AF92BF92CF92DF92EF92FF920F931F93DD
:10095000CF93DF931F920F2EF4E67F2EF02D7F9220
:100960001F9283EC8F931F92D0E2DF931F92C1E01E
:10097000CF931F92CF931F922AE02F931F920F2E97
:10098000F5E04F2EF02D4F921F920F2EF2E82F2EF2
:10099000F02D2F921F92DF931F92CF931F92CF9330
:1009A0001F9289E08F931F928FE08F931F920F2EDB
:1009B000F4EB3F2EF02D3F921F92DF931F92CF93C7
:1009C0001F92CF931F9298E09F931F9227E02F933F
:1009D0001F920F2EF1EE5F2EF02D5F921F92DF938C
:1009E0001F92CF931F92CF931F922F931F927F92AC
:1009F0001F9296E99F931F92DF931F92CF931F92AE
:100A0000CF931F9296E09F931F927F921F9299E639
:100A10009F931F92DF931F92CF931F92CF931F92AA
:100A20004F921F924F921F922F921F92DF931F920D
:100A3000CF931F92CF931F926894662462F86F92AF
:100A40001F928F931F923F921F92DF931F92CF931B
:100A50001F92CF931F9223E02F931F9287E08F93D3
:100A60001F925F921F92DF9388248394912CAA2473
:100A7000A394B12C6894CC24C1F8D12C0F2EF4E6A9
:100A8000EF2EF12CF02D06E910E020E230E041E0FD
:100A900050E061E070E081E090E02CDC9FEF29E61F
:100AA00088E1915020408040E1F700C000008DB700
:100AB0009EB78A599F4F0FB6F8949EBF0FBE8DBF49
:100AC0001F926F921F929DEC9F931F92DF931F9234
:100AD000CF931F92CF931F922AE02F931F927F9262
:100AE0001F922F921F92DF931F92CF931F92CF934B
:100AF0001F9289E08F931F927F921F923F921F92C5
:100B0000DF931F92CF931F92CF931F9298E09F93F2
:100B10001F927F921F925F921F92DF931F92CF933B
:100B20001F92CF931F9227E02F931F926F921F92D5
:100B300085EA8F931F92DF931F92CF931F92CF93DB
:100B40001F9286E08F931F926F921F929DE79F9353
:100B50001F92DF931F92CF931F92CF931F924F92BA
:100B60001F927F921F922F921F92DF931F92CF931B
:100B70001F92CF931F926F921F927F921F923F926C
:100B80001F92DF931F92CF931F92CF931F9223E068
:100B90002F931F927F921F925F921F92DF93689410
:100BA000EE24E2F8F12C05EA10E020E230E041E02A
:100BB00050E061E070E081E090E09CDB8FEF9FE02F
:100BC00027E2815090402040E1F700C000008DB73F
:100BD0009EB78A599F4F0FB6F8949EBF0FBE8DBF28
:100BE0001F927F921F929DEC9F931F92DF931F9203
:100BF000CF931F92CF931F922AE02F931F927F9241
:100C00001F922F921F92DF931F92CF931F92CF9329
:100C10001F9289E08F931F927F921F923F921F92A3
:100C2000DF931F92CF931F92CF931F9298E09F93D1
:100C30001F927F921F925F921F92DF931F92CF931A
:100C40001F92CF931F9227E02F931F9283E08F93E1
:100C50001F9282EB8F931F92DF931F92CF931F926D
:100C6000CF931F9296E09F931F927F921F922DE742
:100C70002F931F92DF931F92CF931F92CF931F92B8
:100C80004F921F926F921F9283E78F931F92DF9371
:100C90001F92CF931F92CF931F926F921F924F92EA
:100CA0001F9288EC8F931F92DF931F92CF931F9216
:100CB000CF931F9283E08F931F927F921F925F9238
:100CC0001F92DF930F2EF4E6EF2EF12CF02D20E291
:100CD00030E041E050E061E070E081E090E00ADB6C
:100CE0009FEF27E98AE3915020408040E1F700C060
:100CF00000008DB79EB78A599F4F0FB6F8949EBFDC
:100D00000FBE8DBF0F2EF4E63F2EF02D68944424C5
:100D100045F8552453946894222423F80F2EF6E0C6
:100D20006F2EF02D1F923F921F929DEC9F931F926A
:100D30004F921F925F921F925F921F922AE02F9311
:100D40001F923F921F9282E88F931F924F921F92A1
:100D50005F921F925F921F9299E09F931F923F9222
:100D60001F9224EB2F931F924F921F925F921F921C
:100D70005F921F922F921F923F921F9281EE8F934C
:100D80001F924F921F925F921F925F921F9297E065
:100D90009F931F923F921F9222EB2F931F924F928D
:100DA0001F925F921F925F921F926F921F92C3E0F9
:100DB000CF931F9288E78F931F924F921F925F925B
:100DC0001F925F921F920F2EF5E07F2EF02D7F92E3
:100DD0001F92CF931F9299E69F931F924F921F925B
:100DE0005F921F925F921F92D4E0DF931F922F9227
:100DF0001F9225EA2F931F924F921F925F921F928C
:100E00005F921F92CF931F922F925F9282E08F93F7
:100E10001F924F9288248394912CAA24A394B12CDE
:100E20006894CC24C1F8D12C0F2EF4E6EF2EF12CCF
:100E3000F02D05EA10E020E230E041E050E061E012
:100E400070E081E090E056DA9FEF23ED80E391506F
:100E500020408040E1F700C000008DB79EB78A595E
:100E60009F4F0FB6F8949EBF0FBE8DBF1F923F924B
:100E70001F929DEC9F931F924F921F925F921F9221
:100E80005F921F922AE02F931F923F921F9282E857
:100E90008F931F924F921F925F921F925F921F92A9
:100EA00099E09F931F926F921F9288EC8F931F92ED
:100EB0004F921F925F921F925F921F922F921F92EA
:100EC0006F921F922DEC2F931F924F921F925F9261
:100ED0001F925F921F9287E08F931F923F921F9203
:100EE00092EB9F931F924F921F925F921F925F927D
:100EF0001F926F921F923F921F9228E72F931F928B
:100F00004F921F925F921F925F921F927F921F9249
:100F10003F921F9289E68F931F924F921F925F928A
:100F20001F925F921F92DF931F923F921F9295EA4A
:100F30009F931F924F921F925F921F925F921F92F8
:100F4000CF931F923F925F9222E02F931F924F9276
:100F500020E230E041E050E061E070E081E090E0CC
:100F6000C9D98FEF93ED20E3815090402040E1F705
:100F700000C000008DB79EB78A599F4F0FB6F894F6
:100F80009EBF0FBE8DBF1F92CF931F9293EC9F9376
:100F90001F924F921F925F921F925F921F922AE0C0
:100FA0002F931F923F921F9282E88F931F924F922E
:100FB0001F925F921F925F921F9299E09F931F92E0
:100FC000CF931F9289EB8F931F924F921F925F9244
:100FD0001F925F921F922F921F92CF931F922CED20
:100FE0002F931F924F921F925F921F925F921F92B8
:100FF00087E08F931F92DF931F9296E99F931F9232
:101000004F921F925F921F925F921F926F921F9258
:10101000CF931F9223E72F931F924F921F925F92BD
:101020001F925F921F927F921F923F921F9289E6BA
:101030008F931F924F921F925F921F925F921F9207
:10104000DF931F923F921F9295EA9F931F924F92B8
:101050001F925F921F925F921F92CF931F923F92B7
:101060005F9222E02F931F924F926894EE24E3F850
:10107000F12C09E910E020E230E041E050E061E0CD
:1010800070E081E090E036D98FEF97E92AE3815054
:1010900090402040E1F700C000008DB79EB78A590C
:1010A0009F4F0FB6F8949EBF0FBE8DBF1F923F9209
:1010B0001F9293EC9F931F924F921F925F921F92E9
:1010C0005F921F922AE02F931F922F931F928AEA1A
:1010D0008F931F924F921F925F921F925F921F9267
:1010E00099E09F931F922F921F9226E92F931F92B0
:1010F0004F921F925F921F925F921F922F921F92A8
:101100003F921F928CED8F931F924F921F925F928E
:101110001F925F921F9297E09F931F923F921F92A0
:101120002F931F924F921F925F921F925F921F9276
:101130006F921F923F921F9223E72F931F924F921D
:101140001F925F921F925F921F927F921F927F92D7
:101150001F928DE78F931F924F921F925F921F9263
:101160005F921F92DF931F926F921F928EEB8F936D
:101170001F924F921F925F921F925F921F92CF9386
:101180001F9289E08F931F929CED9F931F924F9225
:101190000F2EF4E6EF2EF12CF02D20E230E041E0AE
:1011A00050E061E070E081E090E0A4D82FEF83EDA3
:1011B00090E3215080409040E1F700C000008DB7DF
:1011C0009EB78A599F4F0FB6F8949EBF0FBE8DBF32
:1011D0001F926F921F9292EB9F931F924F921F92BA
:1011E0005F921F925F921F922AE02F931F92CF93DC
:1011F0001F9285EA8F931F924F921F925F921F92C8
:101200005F921F9299E09F931F923F921F9226E94F
:101210002F931F924F921F925F921F925F921F9285
:101220002F921F92CF931F9281EE8F931F924F9216
:101230001F925F921F925F921F9297E09F931F925F
:10124000DF931F9289E88F931F924F921F925F92B4
:101250001F925F921F926F921F927F921F928FE553
:101260008F931F924F921F925F921F925F921F92D5
:101270007F921F92CF931F9222E82F931F924F923B
:101280001F925F921F925F921F92DF931F92CF93E4
:101290001F9284EB8F931F924F921F925F921F9227
:1012A0005F921F92CF931F92CF931F9291EE9F93C5
:1012B0001F924F926894EE24E2F8F12C07E810E0B8
:1012C00020E230E041E050E061E070E081E090E059
:1012D00011D82FEF83ED90E3215080409040E1F74B
:1012E00000C000008DB79EB78A599F4F0FB6F89483
:1012F0009EBF0FBE8DBF1F92CF931F929AEA9F93FE
:101300001F924F921F925F921F925F921F922AE04C
:101310002F931F928BE08F931F9288E78F931F92DA
:101320004F921F925F921F925F921F9299E09F933C
:101330001F928FE08F931F9282ED8F931F924F9297
:101340001F925F921F925F921F922F921F92CF93D4
:101350001F928F931F924F921F925F921F925F92E4
:101360001F9227E02F931F92CF931F9282E88F93B3
:101370001F924F921F925F921F925F921F926F92E5
:101380001F92CF931F928AE58F931F924F921F92C5
:101390005F921F925F921F927F921F923F921F92C5
:1013A00092E89F931F924F921F925F921F925F92BB
:1013B0001F92DF931F923F921F9224EB2F931F9255
:1013C0004F921F925F921F925F921F92CF931F9234
:1013D0003F921F9281EE8F931F924F920F2EF3E058
:1013E000EF2EF12CF02D0CE710E020E230E041E090
:1013F00050E061E070E081E090E00E947A019FEFB0
:1014000027E98AE3915020408040E1F700C00000C6
:101410008DB79EB78A599F4F0FB6F8949EBF0FBEE7
:101420008DBF1F923F921F929AEA9F931F924F92F5
:101430001F925F921F925F921F922AE02F931F923A
:10144000CF931F92D9E6DF931F924F921F925F9224
:101450001F925F921F9289E08F931F929BE09F9350
:101460001F9225EA2F931F924F921F925F921F9215
:101470005F921F922F921F928DE08F935F9282E076
:101480008F931F924F921F925F921F925F921F92B3
:1014900097E09F931F923F921F9222E82F931F92F3
:1014A0004F921F925F921F925F921F926F921F92B4
:1014B0003F921F920F2EFAE57F2EF02D7F921F9202
:1014C0004F921F925F921F925F921F9285E08F93BF
:1014D0001F923F921F922F931F924F921F925F92E3
:1014E0001F925F921F9294E09F931F923F921F92D0
:1014F00024EB2F931F924F921F925F921F925F9245
:101500001F92CF931F923F921F9281EE8F931F9253
:101510004F920F2EF4E6EF2EF12CF02D20E230E06A
:1015200041E050E061E070E081E090E00E947A01EB
:101530009FEF23ED80E3915020408040E1F700C011
:1015400000008DB79EB78A599F4F0FB6F8949EBF83
:101550000FBE8DBF1F923F921F929AEA9F931F92D8
:101560004F921F925F921F925F921F922AE02F93D9
:101570001F923F921F92DF931F924F921F925F9292
:101580001F925F921F9289E08F931F923F921F924A
:1015900095EA9F931F924F921F925F921F925F92C4
:1015A0001F922F921F923F925F9222E02F931F92E1
:1015B0004F921F925F921F925F921F9287E08F93CC
:1015C0001F923F921F9292E89F931F924F921F92F9
:1015D0005F921F925F921F926F921F923F921F9293
:1015E0007F921F924F921F925F921F925F921F9263
:1015F00025E02F931F923F921F929F931F924F922D
:101600001F925F921F925F921F9284E08F931F92AE
:101610006F921F9288EC8F931F924F921F925F924E
:101620001F925F921F92CF931F926F921F929DEC19
:101630009F931F924F9220E230E041E050E061E042
:1016400070E081E090E00E947A012FEF83ED90E35B
:10165000215080409040E1F700C000008DB79EB758
:101660008A599F4F0FB6F8949EBF0FBE8DBF1F9231
:10167000CF931F920F2EFEEB7F2EF02D7F921F92A5
:101680004F921F925F921F925F921F929AE09F93D8
:101690001F923F921F92DF931F924F921F925F9271
:1016A0001F925F921F9229E02F931F923F921F92E9
:1016B00085EA8F931F924F921F925F921F925F92C3
:1016C0001F922F921F923F925F9292E09F931F92E0
:1016D0004F921F925F921F925F921F9227E02F936B
:1016E0001F922F921F9283E98F931F924F921F9206
:1016F0005F921F925F921F926F921F92CF931F92E1
:101700003F921F924F921F925F921F925F921F9281
:1017100095E09F931F923F921F9222E82F931F9272
:101720004F921F925F921F925F921F9284E08F935D
:101730001F92CF931F9289EB8F931F924F921F920C
:101740005F921F925F921F92CF931F92CF931F922F
:10175000DCEDDF931F924F920F2EF3E0EF2EF12C72
:10176000F02D06E910E020E230E041E050E061E0D9
:1017700070E081E090E00E947A019FEF27E98AE320
:10178000915020408040E1F700C000008DB79EB727
:101790008A599F4F0FB6F8949EBF0FBE8DBF1F9200
:1017A0003F921F927F921F924F921F925F921F92C1
:1017B0005F921F929AE09F931F9225E02F931F92B2
:1017C0008DE78F931F924F921F925F921F925F92AD
:1017D0001F9299E09F931F926F921F927F921F9288
:1017E0004F921F925F921F925F921F922F921F92B1
:1017F0009F931F92DF931F924F921F925F921F92AF
:101800005F921F9227E02F931F923F921F9283E9CE
:101810008F931F924F921F925F921F925F921F921F
:101820006F921F923F921F923F921F924F921F9270
:101830005F921F925F921F9295E09F931F922AE002
:101840002F931F928AEA8F931F924F921F925F925B
:101850001F925F921F9294E09F931F922F921F926C
:101860000F2EF6E97F2EF02D7F921F924F921F923E
:101870005F921F925F921F92CF931F923F921F928F
:10188000DF931F924F920F2EF4E6EF2EF12CF02DE6
:1018900020E230E041E050E061E070E081E090E083
:1018A0000E947A012FEF83ED90E321508040904019
:1018B000E1F700C000008DB79EB78A599F4F0FB661
:1018C000F8949EBF0FBE8DBF1F9297E09F931F920B
:1018D00087ED8F931F924F921F925F921F925F929C
:1018E0001F922AE02F931F92CF931F9282E88F932B
:1018F0001F924F921F925F921F925F921F9299E0E8
:101900009F931F92CF931F9224EB2F931F924F927E
:101910001F925F921F925F921F922F921F92CF93FE
:101920001F9281EE8F931F924F921F925F921F9290
:101930005F921F9297E09F931F9224E02F931F9234
:101940008FEA8F931F924F921F925F921F925F9226
:101950001F926F921F929F931F9282E88F931F9204
:101960004F921F925F921F925F921F9295E09F93FA
:101970001F92CF931F9225EA2F931F924F921F928F
:101980005F921F925F921F9284E08F931F923F920B
:101990001F927F921F924F921F925F921F925F92AF
:1019A0001F92CF931F92CF931F9291EE9F931F92FE
:1019B0004F926894EE24E2F8F12C0FEA10E020E256
:1019C00030E041E050E061E070E081E090E00E94B2
:1019D0007A012FEF87E99AE3215080409040E1F7A8
:1019E00000C000008DB79EB78A599F4F0FB6F8947C
:1019F0009EBF0FBE8DBF1F92CF931F929DEC9F93F2
:101A00001F924F921F925F921F925F921F922AE045
:101A10002F931F923F921F9282E88F931F924F92B3
:101A20001F925F921F925F921F9299E09F931F9265
:101A30003F921F9224EB2F931F924F921F925F921F
:101A40001F925F921F922F921F923F921F9281EEE0
:101A50008F931F924F921F925F921F925F921F92DD
:101A600097E09F931F92CF931F9222EB2F931F9289
:101A70004F921F925F921F925F921F926F921F92DE
:101A8000CF931F928DE78F931F924F921F925F9279
:101A90001F925F921F9295E09F931F922BE02F93CE
:101AA0001F9288E78F931F924F921F925F921F920F
:101AB0005F921F9284E08F931F928FE08F931F920B
:101AC00082ED8F931F924F921F925F921F925F92AF
:101AD0001F92CF931F92CF931F928F931F924F927B
:101AE0000F2EF3E0EF2EF12CF02D05EA10E020E2AE
:101AF00030E041E050E061E070E081E090E00E9481
:101B00007A019FEF27E98AE3915020408040E1F776
:101B100000C000008DB79EB78A599F4F0FB6F8944A
:101B20009EBF0FBE8DBF80919401909195010E9440
:101B30004201892B09F4F6C81F920F2EF4E67F2E7E
:101B4000F02D7F921F928DEC8F931F92D0E2DF9346
:101B50001F92C1E0CF931F92CF931F929AE09F9361
:101B60001F927F921F920F2EF2E82F2EF02D2F92B0
:101B70001F92DF931F92CF931F92CF931F9229E062
:101B80002F931F927F921F920F2EF4EB3F2EF02D7A
:101B90003F921F92DF931F92CF931F92CF931F927A
:101BA00088E08F931F927F921F920F2EF1EE4F2E9F
:101BB000F02D4F921F92DF931F92CF931F92CF93DE
:101BC0001F9297E09F931F920F2EF3E06F2EF02D40
:101BD0006F921F9285EA8F931F92DF931F92CF938C
:101BE0001F92CF931F9226E02F931F927F921F92F6
:101BF0008DE78F931F92DF931F92CF931F92CF9306
:101C00001F9285E08F931F926F921F922F921F92C7
:101C1000DF931F92CF931F92CF931F926894552406
:101C200052F85F921F929F931F923F921F92DF93F1
:101C30001F92CF931F92CF931F926F921F926F921A
:101C40001F924F921F92DF930F2EF4E6EF2EF12C8E
:101C5000F02D20E230E041E050E061E070E081E012
:101C600090E00E947A019FEF2FE087E291502040A0
:101C70008040E1F700C000008DB79EB78A599F4FA2
:101C80000FB6F8949EBF0FBE8DBF1F925F921F923A
:101C900083EC8F931F92DF931F92CF931F92CF936A
:101CA0001F929AE09F931F927F921F922F921F92F2
:101CB000DF931F92CF931F92CF931F9229E02F9310
:101CC0001F927F921F923F921F92DF931F92CF939A
:101CD0001F92CF931F9288E08F931F927F921F9243
:101CE0004F921F92DF931F92CF931F92CF931F9219
:101CF00097E09F931F925F921F9286E98F931F92A6
:101D0000DF931F92CF931F92CF931F9226E02F93C2
:101D10001F925F921F9289E68F931F92DF931F920B
:101D2000CF931F92CF931F9285E08F931F927F9244
:101D30001F922F921F92DF931F92CF931F92CF93E8
:101D40001F925F921F927F921F923F921F92DF938A
:101D50001F92CF931F92CF931F926F921F927F92E9
:101D60001F924F921F92DF936894EE24E2F8F12CB9
:101D700006E910E020E230E041E050E061E070E090
:101D800081E090E00E947A019FEF2FE087E291507E
:101D900020408040E1F700C000008DB79EB78A590F
:101DA0009F4F0FB6F8949EBF0FBE8DBFDF91CF91AE
:101DB0001F910F91FF90EF90DF90CF90BF90AF9069
:101DC0009F908F907F906F905F904F903F902F905B
:101DD000089508952F923F924F925F926F927F9253
:101DE0008F929F92AF92BF92CF92DF92EF92FF922B
:101DF0000F931F93CF93DF931F920F2EF4E67F2E46
:101E0000F02D7F921F9223EC2F931F92D0E2DF934D
:101E10001F92C1E0CF931F92CF931F928AE08F93BE
:101E20001F920F2EF5E03F2EF02D3F921F920F2EA6
:101E3000F2E82F2EF02D2F921F92DF931F92CF9357
:101E40001F92CF931F9299E09F931F928FE08F93E1
:101E50001F920F2EF4EB5F2EF02D5F921F92DF93F7
:101E60001F92CF931F92CF931F9228E02F931F9220
:101E70000F2EF7E04F2EF02D4F921F9291EE9F9371
:101E80001F92DF931F92CF931F92CF931F924F9277
:101E90001F927F921F9226E92F931F92DF931F922A
:101EA000CF931F92CF931F9296E09F931F927F92A2
:101EB0001F9229E62F931F92DF931F92CF931F92B9
:101EC000CF931F923F921F923F921F922F921F9289
:101ED000DF931F92CF931F92CF931F9294E09F9313
:101EE0001F928F931F925F921F92DF931F92CF9347
:101EF0001F92CF931F920F2EF3E06F2EF02D6F9253
:101F00001F924F921F9221EE2F931F92DF938824EE
:101F10008394912CAA24A394B12C6894CC24C1F866
:101F2000D12C0F2EF4E6EF2EF12CF02D06E910E067
:101F300020E230E041E050E061E070E081E090E0DC
:101F40000E947A018FEF99E628E18150904020406D
:101F5000E1F700C000008DB79EB78A599F4F0FB6BA
:101F6000F8949EBF0FBE8DBF1F927F921F9293EC7D
:101F70009F931F92DF931F92CF931F92CF931F9235
:101F80002AE02F931F922F931F9286E98F931F921F
:101F9000DF931F92CF931F92CF931F9299E09F934D
:101FA0001F927F921F925F921F92DF931F92CF9397
:101FB0001F92CF931F9228E02F931F928AE08F9356
:101FC0001F929CEC9F931F92DF931F92CF931F92BF
:101FD000CF931F924F921F927F921F9226E92F93C9
:101FE0001F92DF931F92CF931F92CF931F9286E091
:101FF0008F931F927F921F9299E69F931F92DF9378
:102000001F92CF931F92CF931F923F921F928EE009
:102010008F931F927F921F92DF931F92CF931F92F5
:10202000CF931F9224E02F931F927F921F925F9273
:102030001F92DF931F92CF931F92CF931F926F92A5
:102040001F928AE08F931F9282EF8F931F92DF93EC
:1020500020E230E041E050E061E070E081E090E0BB
:102060000E947A019FEF29E688E19150204080404C
:10207000E1F700C000008DB79EB78A599F4F0FB699
:10208000F8949EBF0FBE8DBF1F926F921F925F92FA
:102090001F92DF931F92CF931F92CF931F929AE0CC
:1020A0009F931F927F921F9226E92F931F92DF9397
:1020B0001F92CF931F92CF931F9289E08F931F920D
:1020C0007F921F925F921F92DF931F92CF931F9276
:1020D000CF931F9298E09F931F927F921F922CECB8
:1020E0002F931F92DF931F92CF931F92CF931F9234
:1020F0004F921F926F921F922F921F92DF931F9207
:10210000CF931F92CF931F9286E08F931F926F926F
:102110001F929AE59F931F92DF931F92CF931F9276
:10212000CF931F923F921F927F921F927F921F9296
:10213000DF931F92CF931F92CF931F9224E02F9390
:102140001F927F921F925F921F92DF931F92CF93F5
:102150001F92CF931F926F921F923F921F9281EE18
:102160008F931F92DF930F2EF3E0EF2EF12CF02DC3
:1021700000E810E020E230E041E050E061E070E093
:1021800081E090E00E947A019FEF29E78FE3915070
:1021900020408040E1F700C000008DB79EB78A590B
:1021A0009F4F0FB6F8949EBF0FBE8DBF1F926F92C8
:1021B0001F929FEA9F931F92DF931F92CF931F92CC
:1021C000CF931F922AE02F931F924F921F9288E77E
:1021D0008F931F92DF931F92CF931F92CF931F92E3
:1021E00089E08F931F924F921F9282ED8F931F92DF
:1021F000DF931F92CF931F92CF931F9298E09F93EC
:102200001F926F921F928F931F92DF931F92CF9313
:102210001F92CF931F924F921F927F921F922F92E5
:102220001F92DF931F92CF931F92CF931F9226E0AE
:102230002F931F927F921F928AE58F931F92DF93B5
:102240001F92CF931F92CF931F923F921F924F9254
:102250001F922F921F92DF931F92CF931F92CF93C3
:102260001F9294E09F931F927F921F925F921F9202
:10227000DF931F92CF931F92CF931F926F921F9263
:102280003F921F9221EE2F931F92DF930FE710E0F2
:1022900020E230E041E050E061E070E081E090E079
:1022A0000E947A018FEF93ED20E38150904020400F
:1022B000E1F700C000008DB79EB78A599F4F0FB657
:1022C000F8949EBF0FBE8DBF1F927F921F929FEA10
:1022D0009F931F92DF931F92CF931F92CF931F92D2
:1022E0002AE02F931F926F921F922F921F92DF93DB
:1022F0001F92CF931F92CF931F9289E08F931F92CB
:102300004F921F925F921F92DF931F92CF931F9263
:10231000CF931F9298E09F931F926F921F9221EE8E
:102320002F931F92DF931F92CF931F92CF931F92F1
:102330004F921F926F921F9287E88F931F92DF93A5
:102340001F92CF931F92CF931F9286E08F931F927D
:102350007F921F929AE59F931F92DF931F92CF93D4
:102360001F92CF931F923F921F927F921F922F92A4
:102370001F92DF931F92CF931F92CF931F9224E05F
:102380002F931F927F921F925F921F92DF931F9253
:10239000CF931F92CF931F926F921F927F921F92A3
:1023A00081EE8F931F92DF9307E810E020E230E088
:1023B00041E050E061E070E081E090E00E947A014D
:1023C0009FEF2FE087E2915020408040E1F700C06E
:1023D00000008DB79EB78A599F4F0FB6F8949EBFE5
:1023E0000FBE8DBF1F923F921F9293EC9F931F923F
:1023F000DF931F92CF931F92CF931F922AE02F93C8
:102400001F927F921F922F921F92DF931F92CF9362
:102410001F92CF931F9289E08F931F927F921F92FA
:102420005F921F92DF931F92CF931F92CF931F92C1
:1024300098E09F931F927F921F9221EE2F931F92FD
:10244000DF931F92CF931F92CF931F924F921F92B1
:102450006F921F9286E98F931F92DF931F92CF9303
:102460001F92CF931F9296E09F931F926F921F929D
:1024700029E62F931F92DF931F92CF931F92CF9342
:102480001F923F921F927F921F922F921F92DF9373
:102490001F92CF931F92CF931F9284E08F931F922E
:1024A0007F921F925F921F92DF931F92CF931F9292
:1024B000CF931F926F921F927F921F9291EE9F93E4
:1024C0001F92DF9306E910E020E230E041E050E0A7
:1024D00061E070E081E090E00E947A012FEF89E6F0
:1024E00098E1215080409040E1F700C000008DB796
:1024F0009EB78A599F4F0FB6F8949EBF0FBE8DBFEF
:1025000080919401909195010E944201DF91CF91B9
:102510001F910F91FF90EF90DF90CF90BF90AF9001
:102520009F908F907F906F905F904F903F902F90F3
:10253000089508952F923F924F925F926F927F92EB
:102540008F929F92AF92BF92CF92DF92EF92FF92C3
:102550000F931F93CF93DF931F920F2EF4E67F2EDE
:10256000F02D7F921F9283EC8F931F92D0E2DF9326
:102570001F92C1E0CF931F92CF931F922AE02F9317
:102580001F920F2EF5E06F2EF02D6F921F9282E8B2
:102590008F931F92DF931F92CF931F92CF931F921F
:1025A00099E09F931F922FE02F931F9284EB8F93BC
:1025B0001F92DF931F92CF931F92CF931F9298E0A9
:1025C0009F931F920F2EF7E02F2EF02D2F921F9228
:1025D00021EE2F931F92DF931F92CF931F92CF93E1
:1025E0001F922F921F927F921F9286E98F931F92C4
:1025F000DF931F92CF931F92CF931F920F2EF6E07F
:102600004F2EF02D4F921F927F921F9289E68F934B
:102610001F92DF931F92CF931F92CF931F926F92BF
:102620001F926F921F9292E89F931F92DF931F92C7
:10263000CF931F92CF931F926894332432F83F9226
:102640001F922FE02F931F9284EB8F931F92DF93A3
:102650001F92CF931F92CF931F920F2EF3E05F2E06
:10266000F02D5F921F922F921F9291EE9F931F92D7
:10267000DF9388248394912CAA24A394B12C68948A
:10268000CC24C1F8D12C0F2EF4E6EF2EF12CF02D36
:1026900006E910E020E230E041E050E061E070E067
:1026A00081E090E00E947A012FEF89E698E12150C5
:1026B00080409040E1F700C000008DB79EB78A5976
:1026C0009F4F0FB6F8949EBF0FBE8DBF1F923F92D3
:1026D0001F929DEC9F931F92DF931F92CF931F92A7
:1026E000CF931F922AE02F931F927F921F9282E82E
:1026F0008F931F92DF931F92CF931F92CF931F92BE
:1027000099E09F931F927F921F9224EB2F931F9229
:10271000DF931F92CF931F92CF931F9288E08F93E6
:102720001F927F921F9291EE9F931F92DF931F92B1
:10273000CF931F92CF931F922F921F923F921F927F
:1027400085EA8F931F92DF931F92CF931F92CF93AF
:102750001F924F921F923F921F9228E72F931F9232
:10276000DF931F92CF931F92CF931F926F921F926E
:102770007F921F9282E88F931F92DF931F92CF93D5
:102780001F92CF931F923F921F927F921F9294EBC2
:102790009F931F92DF931F92CF931F92CF931F920D
:1027A0005F921F927F921F9221EE2F931F92DF93D1
:1027B0006894EE24E2F8F12C05EA10E020E230E023
:1027C00041E050E061E070E081E090E00E947A0139
:1027D0008FEF93ED20E3815090402040E1F700C05F
:1027E00000008DB79EB78A599F4F0FB6F8949EBFD1
:1027F0000FBE8DBF1F927F921F929DEC9F931F92E1
:10280000DF931F92CF931F92CF931F922AE02F93B3
:102810001F927F921F9282E88F931F92DF931F92E5
:10282000CF931F92CF931F9299E09F931F927F9215
:102830001F9224EB2F931F92DF931F92CF931F922F
:10284000CF931F9288E08F931F927F921F9291EEF9
:102850009F931F92DF931F92CF931F92CF931F924C
:102860002F921F925F921F922FEA2F931F92DF9356
:102870001F92CF931F92CF931F924F921F927F92DE
:102880001F9288E78F931F92DF931F92CF931F921F
:10289000CF931F926F921F923F921F9283E78F9365
:1028A0001F92DF931F92CF931F92CF931F923F925D
:1028B0001F926F921F9288EC8F931F92DF931F924B
:1028C000CF931F92CF931F925F921F927F921F927E
:1028D0009F931F92DF930F2EF4E6EF2EF12CF02D35
:1028E00020E230E041E050E061E070E081E090E023
:1028F0000E947A019FEF23ED80E3915020408040B9
:10290000E1F700C000008DB79EB78A599F4F0FB600
:10291000F8949EBF0FBE8DBF1F927F921F929DECB9
:102920009F931F92DF931F92CF931F92CF931F927B
:102930002AE02F931F927F921F9282E88F931F921B
:10294000DF931F92CF931F92CF931F9299E09F9393
:102950001F924F921F922DEC2F931F92DF931F9285
:10296000CF931F92CF931F9288E08F931F926F9205
:102970001F922F931F92DF931F92CF931F92CF939B
:102980001F922F921F927F921F929FEA9F931F92F6
:10299000DF931F92CF931F92CF931F924F921F925C
:1029A0005F921F928CE88F931F92DF931F92CF93B9
:1029B0001F92CF931F926F921F9228E02F931F9226
:1029C00086E98F931F92DF931F92CF931F92CF932D
:1029D0001F923F921F928CE08F931F9296E99F93D4
:1029E0001F92DF931F92CF931F92CF931F925F92FC
:1029F0001F923F921F9221EF2F931F92DF936894B3
:102A0000EE24E2F8F12C02EB10E020E230E041E0AD
:102A100050E061E070E081E090E00E947A018FEF89
:102A200097E92AE3815090402040E1F700C0000080
:102A30008DB79EB78A599F4F0FB6F8949EBF0FBEB1
:102A40008DBF1F926F921F9280EA8F931F92DF9328
:102A50001F92CF931F92CF931F929AE09F931F9242
:102A60005F921F9226E92F931F92DF931F92CF93BD
:102A70001F92CF931F9289E08F931F923F921F92D4
:102A80002F931F92DF931F92CF931F92CF931F928A
:102A900098E09F931F926F921F9221EF2F931F92A6
:102AA000DF931F92CF931F92CF931F922F921F926B
:102AB0004F921F928CE78F931F92DF931F92CF93B9
:102AC0001F92CF931F924F921F924F921F928AE5AF
:102AD0008F931F92DF931F92CF931F92CF931F92DA
:102AE0006F921F925F921F9292E89F931F92DF93C3
:102AF0001F92CF931F92CF931F923F921F924F929C
:102B00001F922DEC2F931F92DF931F92CF931F9252
:102B1000CF931F925F921F924F921F922F931F92FB
:102B200080E88F930F2EF9E18F2E912CF02D0F2E30
:102B3000F5E0EF2EF12CF02D0CE710E020E230E074
:102B400041E050E061E070E081E090E00E947A01B5
:102B50008FEF97EA21E6815090402040E1F700C0D6
:102B600000008DB79EB78A599F4F0FB6F8949EBF4D
:102B70000FBE8DBF1F925F921F928AEA8F931F92A2
:102B8000DF931F92CF931F92CF931F929AE09F9350
:102B90001F922F921F9228E72F931F92DF931F926D
:102BA000CF931F92CF931F9289E08F931F929FE044
:102BB0009F931F9282ED8F931F92DF931F92CF936B
:102BC0001F92CF931F9228E02F931F922F921F9254
:102BD0008F931F92DF931F92CF931F92CF931F92D9
:102BE0002F921F925F921F9282E88F931F92DF9322
:102BF0001F92CF931F92CF931F924F921F927F925B
:102C00001F929AE59F931F92DF931F92CF931F927B
:102C1000CF931F926F921F927F921F928F931F925A
:102C2000DF931F92CF931F92CF931F923F921F92D9
:102C30004F921F9224EB2F931F92DF931F92CF93FB
:102C40001F92CF931F925F921F926F921F9281EEFD
:102C50008F931F92DF9388248394912C0F2EF4E698
:102C6000EF2EF12CF02D20E230E041E050E061E069
:102C700070E081E090E00E947A019FEF23ED80E315
:102C8000915020408040E1F700C000008DB79EB712
:102C90008A599F4F0FB6F8949EBF0FBE8DBF1F92EB
:102CA0000F2EF3E07F2EF02D7F921F9282EB8F93F9
:102CB0001F92DF931F92CF931F92CF931F929AE0A0
:102CC0009F931F927F921F920F2EF2E83F2EF02DBE
:102CD0003F921F92DF931F92CF931F92CF931F9229
:102CE00029E02F931F922F921F920F2EF4EB4F2E5D
:102CF000F02D4F921F92DF931F92CF931F92CF938D
:102D00001F9288E08F931F927F921F920F2EF1EEF9
:102D10005F2EF02D5F921F92DF931F92CF931F9231
:102D2000CF931F922F921F927F921F9289E88F93C9
:102D30001F92DF931F92CF931F92CF931F9296E023
:102D40009F931F927F921F928FE58F931F92DF9325
:102D50001F92CF931F92CF931F9225E02F931F9224
:102D60000F2EF4E66F2EF02D6F921F923F921F925E
:102D7000DF931F92CF931F92CF931F9284E08F9384
:102D80001F926F921F924F921F92DF931F92CF93C9
:102D90001F92CF931F927F921F926F921F925F920A
:102DA0001F92DF930F2EF3E0EF2EF12CF02D07E8AA
:102DB00010E020E230E041E050E061E070E081E0CE
:102DC00090E00E947A019FEF23ED80E39150204034
:102DD0008040E1F700C000008DB79EB78A599F4F31
:102DE0000FB6F8949EBF0FBE8DBF1F9294E09F93C5
:102DF0001F9283EC8F931F92DF931F92CF931F92AA
:102E0000CF931F922AE02F931F926F921F923F92AF
:102E10001F92DF931F92CF931F92CF931F9289E04F
:102E20008F931F926F921F924F921F92DF931F9268
:102E3000CF931F92CF931F9298E09F931F926F9210
:102E40001F925F921F92DF931F92CF931F92CF9397
:102E50001F922F921F927F921F9286E98F931F924B
:102E6000DF931F92CF931F92CF931F9226E02F9351
:102E70001F927F921F9289E68F931F92DF931F927A
:102E8000CF931F92CF931F9285E08F931F921F9233
:102E90001F923F921F92DF931F92CF931F92CF9367
:102EA0001F9294E09F931F926F921F924F921F92D6
:102EB000DF931F92CF931F92CF931F927F921F9207
:102EC0006F921F925F921F92DF9306E910E020E25B
:102ED00030E041E050E061E070E081E090E00E948D
:102EE0007A012FEF89E698E1215080409040E1F788
:102EF00000C000008DB79EB78A599F4F0FB6F89457
:102F00009EBF0FBE8DBF80919401909195010E944C
:102F10004201DF91CF911F910F91FF90EF90DF90D1
:102F2000CF90BF90AF909F908F907F906F905F9069
:102F30004F903F902F9008952F923F924F925F9223
:102F40006F927F928F929F92AF92BF92CF92DF92B9
:102F5000EF92FF920F931F93CF93DF931F920F2E49
:102F6000F4E67F2EF02D7F921F9283EC8F931F92B9
:102F7000D0E2DF931F92C1E0CF931F92CF931F92B5
:102F80002AE02F931F920F2EF5E06F2EF02D6F92F7
:102F90001F9282E88F931F92DF931F92CF931F920D
:102FA000CF931F9299E09F931F922FE02F931F9230
:102FB00084EB8F931F92DF931F92CF931F92CF9337
:102FC0001F9298E09F931F920F2EF7E02F2EF02D67
:102FD0002F921F9221EE2F931F92DF931F92CF9378
:102FE0001F92CF931F922F921F927F921F9286E97A
:102FF0008F931F92DF931F92CF931F92CF931F92B5
:103000000F2EF6E04F2EF02D4F921F927F921F92BF
:1030100089E68F931F92DF931F92CF931F92CF93D6
:103020001F926F921F926F921F9292E89F931F922E
:10303000DF931F92CF931F92CF931F9268945524D2
:1030400052F85F921F922FE02F931F9284EB8F9381
:103050001F92DF931F92CF931F92CF931F920F2E39
:10306000F3E03F2EF02D3F921F922F921F9291EE90
:103070009F931F92DF9388248394912CAA24A39476
:10308000B12C6894CC24C1F8D12C0F2EF4E6EF2E8D
:10309000F12CF02D06E910E020E230E041E050E0B4
:1030A00061E070E081E090E00E947A012FEF89E614
:1030B00098E1215080409040E1F700C000008DB7BA
:1030C0009EB78A599F4F0FB6F8949EBF0FBE8DBF13
:1030D0001F925F921F9294EB9F931F92DF931F9218
:1030E000CF931F92CF931F922AE02F931F927F922C
:1030F0001F9282E88F931F92DF931F92CF931F92AC
:10310000CF931F9299E09F931F927F921F9224EB7F
:103110002F931F92DF931F92CF931F92CF931F92F3
:1031200088E08F931F927F921F9291EE9F931F9240
:10313000DF931F92CF931F92CF931F922F921F92D4
:103140005F921F9227E82F931F92DF931F92CF93D6
:103150001F92CF931F924F921F925F921F928FE503
:103160008F931F92DF931F92CF931F92CF931F9243
:103170006F921F927F921F9292E89F931F92DF930C
:103180001F92CF931F92CF931F925F921F927F92B5
:103190001F9224EB2F931F92DF931F92CF931F92C6
:1031A000CF931F923F921F927F921F9281EE8F9337
:1031B0001F92DF936894EE24E2F8F12C07E810E008
:1031C00020E230E041E050E061E070E081E090E03A
:1031D0000E947A019FEF23ED80E3915020408040D0
:1031E000E1F700C000008DB79EB78A599F4F0FB618
:1031F000F8949EBF0FBE8DBF1F927F921F9294EBDB
:103200009F931F92DF931F92CF931F92CF931F9292
:103210002AE02F931F925F921F9283E78F931F9252
:10322000DF931F92CF931F92CF931F9299E09F93AA
:103230001F926F921F9288EC8F931F92DF931F92C1
:10324000CF931F92CF931F9228E02F931F927F92CC
:103250001F9281EE8F931F92DF931F92CF931F9245
:10326000CF931F922F921F927F921F9297E89F9366
:103270001F92DF931F92CF931F92CF931F924F9273
:103280001F927F921F922FE52F931F92DF931F9221
:10329000CF931F92CF931F926F921F927F921F9294
:1032A00082E88F931F92DF931F92CF931F92CF9349
:1032B0001F925F921F927F921F9294EB9F931F9297
:1032C000DF931F92CF931F92CF931F923F921F9233
:1032D0007F921F9221EE2F931F92DF930F2EF3E028
:1032E000EF2EF12CF02D00E810E020E230E041E07C
:1032F00050E061E070E081E090E00E947A018FEFA1
:1033000093ED20E3815090402040E1F700C00000A1
:103310008DB79EB78A599F4F0FB6F8949EBF0FBEC8
:103320008DBF1F923F921F9280EA8F931F92DF936F
:103330001F92CF931F92CF931F929AE09F931F9259
:1033400028E02F931F9286E98F931F92DF931F929D
:10335000CF931F92CF931F9299E09F931F928CE07F
:103360008F931F9226E92F931F92DF931F92CF9383
:103370001F92CF931F9288E08F931F925F921F92AC
:1033800091EF9F931F92DF931F92CF931F92CF9342
:103390001F922F921F925F921F928AE78F931F9224
:1033A000DF931F92CF931F92CF931F924F921F9242
:1033B0007F921F922FE52F931F92DF931F92CF933F
:1033C0001F92CF931F926F921F927F921F9282E85B
:1033D0008F931F92DF931F92CF931F92CF931F92D1
:1033E0005F921F924F921F929DEC9F931F92DF93CB
:1033F0001F92CF931F92CF931F923F921F926F9273
:103400001F929F931F92DF930F2EF4E6EF2EF12C65
:10341000F02D20E230E041E050E061E070E081E03A
:1034200090E00E947A012FEF8FE19EE421508040CE
:103430009040E1F700C000008DB79EB78A599F4FBA
:103440000FB6F8949EBF0FBE8DBF1F924F921F9272
:103450009DEC9F931F92DF931F92CF931F92CF9368
:103460001F922AE02F931F923F921F9283E78F9320
:103470001F92DF931F92CF931F92CF931F9299E0D9
:103480009F931F924F921F922DEC2F931F92DF93C9
:103490001F92CF931F92CF931F9288E08F931F921A
:1034A0004F921F922F931F9280E48F931F929AE066
:1034B0009F931F92CF931F922F921F926F921F92F2
:1034C00020EB2F931F92DF931F92CF931F92CF93E6
:1034D0001F924F921F926F921F9288E78F931F92B5
:1034E000DF931F92CF931F92CF931F926F921F92E1
:1034F0003F921F9297E89F931F92DF931F92CF9363
:103500001F92CF931F925F921F925F921F9226E9A4
:103510002F931F92DF931F92CF931F92CF931F92EF
:103520003F921F926F921F9281EF8F931F92DF93B2
:103530000F2EF6E0EF2EF12CF02D00EB10E020E244
:1035400030E041E050E061E070E081E090E00E9416
:103550007A019FEF27EA81E6915020408040E1F711
:1035600000C000008DB79EB78A599F4F0FB6F894E0
:103570009EBF0FBE8DBF1F927F921F929DEC9F93A7
:103580001F92DF931F92CF931F92CF931F922AE037
:103590002F931F927F921F9282E88F931F92DF9347
:1035A0001F92CF931F92CF931F9299E09F931F92E8
:1035B0004F921F9224EB2F931F92DF931F92CF9372
:1035C0001F92CF931F9288E08F931F926F921F924A
:1035D00091EE9F931F92DF931F92CF931F92CF93F1
:1035E0001F922F921F927F921F9220EB2F931F9278
:1035F000DF931F92CF931F92CF931F924F921F92F0
:103600003F921F928DE78F931F92DF931F92CF936C
:103610001F92CF931F926F921F922F921F9288E753
:103620008F931F92DF931F92CF931F92CF931F927E
:103630005F921F929FE09F931F9282ED8F931F9244
:10364000DF931F92CF931F92CF931F923F921F92AF
:103650002F921F928F931F92DF930F2EF3E0EF2E86
:10366000F12CF02D0AEA10E020E230E041E050E0D9
:1036700061E070E081E090E00E947A012FEF89E73D
:103680009FE3215080409040E1F700C000008DB7DB
:103690009EB78A599F4F0FB6F8949EBF0FBE8DBF3D
:1036A0001F920F2EF3E07F2EF02D7F921F928DEC54
:1036B0008F931F92DF931F92CF931F92CF931F92EE
:1036C0009AE09F931F920F2EF4E66F2EF02D6F92CB
:1036D0001F920F2EF2E83F2EF02D3F921F92DF93A4
:1036E0001F92CF931F92CF931F9229E02F931F9287
:1036F0006F921F920F2EF4EB4F2EF02D4F921F92D0
:10370000DF931F92CF931F92CF931F9288E08F93E6
:103710001F926F921F920F2EF1EE5F2EF02D5F928F
:103720001F92DF931F92CF931F92CF931F922F92DE
:103730001F927F921F9285EA8F931F92DF931F92B1
:10374000CF931F92CF931F9296E09F931F927F92E9
:103750001F928BE78F931F92DF931F92CF931F923D
:10376000CF931F9225E02F931F927F921F923F923B
:103770001F92DF931F92CF931F92CF931F9284E0EB
:103780008F931F922F921F924F921F92DF931F923F
:10379000CF931F92CF931F927F921F927F921F927F
:1037A0005F921F92DF9305EA10E020E230E041E0F3
:1037B00050E061E070E081E090E00E947A019FEFCC
:1037C00023ED80E3915020408040E1F700C00000ED
:1037D0008DB79EB78A599F4F0FB6F8949EBF0FBE04
:1037E0008DBF1F927F921F9283EC8F931F92DF9366
:1037F0001F92CF931F92CF931F929AE09F931F9295
:103800006F921F923F921F92DF931F92CF931F924E
:10381000CF931F9229E02F931F926F921F924F9286
:103820001F92DF931F92CF931F92CF931F9288E036
:103830008F931F926F921F925F921F92DF931F923E
:10384000CF931F92CF931F922F921F927F921F921E
:1038500086E98F931F92DF931F92CF931F92CF938E
:103860001F9296E09F931F9224E02F931F9289E668
:103870008F931F92DF931F92CF931F92CF931F922C
:1038800085E08F931F921F921F923F921F92DF93AA
:103890001F92CF931F92CF931F922F931F926F92DD
:1038A0001F924F921F92DF931F92CF931F92CF933D
:1038B0001F927F921F926F921F925F921F92DF93CF
:1038C00006E910E020E230E041E050E061E070E025
:1038D00081E090E00E947A019FEF29E688E1915013
:1038E00020408040E1F700C000008DB79EB78A59A4
:1038F0009F4F0FB6F8949EBF0FBE8DBF809194016D
:10390000909195010E944201DF91CF911F910F91FB
:10391000FF90EF90DF90CF90BF90AF909F908F90EF
:103920007F906F905F904F903F902F9008952F92CF
:103930003F924F925F926F927F928F929F92AF923F
:10394000BF92CF92DF92EF92FF920F931F93CF938C
:10395000DF931F920F2EF4E67F2EF02D7F921F92A1
:1039600023EC2F931F92D0E2DF931F92C1E0CF93FD
:103970001F92CF931F920F2EFAE06F2EF02D6F92B1
:103980001F920F2EFBE03F2EF02D3F921F9292E8E8
:103990009F931F92DF931F92CF931F92CF931F92FB
:1039A00089E08F931F926F921F9284EB8F931F92E7
:1039B000DF931F92CF931F92CF931F9228E02F93F4
:1039C0001F920F2EF6E04F2EF02D4F921F920F2ECA
:1039D000F1EE5F2EF02D5F921F92DF931F92CF9337
:1039E0001F92CF931F9227E02F931F927F921F92D7
:1039F00026E92F931F92DF931F92CF931F92CF93AD
:103A00001F924F921F927F921F9229E62F931F922F
:103A1000DF931F92CF931F92CF931F920F2EF5E04B
:103A20002F2EF02D2F921F923F921F929F931F9245
:103A3000DF931F92CF931F92CF931F9294E09F9397
:103A40001F926F921F928F931F92DF931F92CF93BB
:103A50001F92CF931F9223E02F931F924F921F929A
:103A60005F921F92DF9388248394912CAA24A394BD
:103A7000B12C6894CC24C1F8D12C0F2EF4E6EF2E93
:103A8000F12CF02D06E910E020E230E041E050E0BA
:103A900061E070E081E090E00E947A018FEF9DE3A9
:103AA00029E4815090402040E1F700C000008DB72C
:103AB0009EB78A599F4F0FB6F8949EBF0FBE8DBF19
:103AC0001F927F921F9293EC9F931F92DF931F92FE
:103AD000CF931F92CF931F926F921F923F921F928C
:103AE00028E22F931F92DF931F92CF931F92CF93C1
:103AF0001F9289E08F931F926F921F925F921F9285
:103B0000DF931F92CF931F92CF931F9298E09F93C2
:103B10001F924F921F928CED8F931F92DF931F92F3
:103B2000CF931F92CF931F9227E02F931F927F92E4
:103B30001F9296E99F931F92DF931F92CF931F923C
:103B4000CF931F924F921F927F921F9229E62F933D
:103B50001F92DF931F92CF931F92CF931F922F92AA
:103B60001F923F921F9298E29F931F92DF931F92A2
:103B7000CF931F92CF931F9224E02F931F926F92A7
:103B80001F925F921F92DF931F92CF931F92CF934A
:103B90001F9293E09F931F924F921F928F931F92B9
:103BA000DF9320E230E041E050E061E070E081E04E
:103BB00090E00E947A012FEF8DE399E4215080403C
:103BC0009040E1F700C000008DB79EB78A599F4F23
:103BD0000FB6F8949EBF0FBE8DBF1F927F921F92AB
:103BE00093EC9F931F92DF931F92CF931F92CF93DB
:103BF0001F926F921F927F921F9228E22F931F9223
:103C0000DF931F92CF931F92CF931F9289E08F93E0
:103C10001F927F921F925F921F92DF931F92CF930A
:103C20001F92CF931F9298E09F931F926F921F92C3
:103C300033243A943F921F92DF931F92CF931F92A7
:103C4000CF931F9227E02F931F927F921F9286E9B6
:103C50008F931F92DF931F92CF931F92CF931F9248
:103C60004F921F927F921F9299E69F931F92DF932C
:103C70001F92CF931F92CF931F922F921F927F92EA
:103C80001F9228E22F931F92DF931F92CF931F92D0
:103C9000CF931F9284E08F931F927F921F925F9227
:103CA0001F92DF931F92CF931F92CF931F9293E0A7
:103CB0009F931F926F921F923F921F92DF9320E279
:103CC00030E041E050E061E070E081E090E00E948F
:103CD0007A012FEF87EA91E6215080409040E1F78A
:103CE00000C000008DB79EB78A599F4F0FB6F89459
:103CF0009EBF0FBE8DBF1F927F921F9293EC9F932A
:103D00001F92DF931F92CF931F92CF931F926F92B8
:103D10001F922F921F928CE38F931F92DF931F921B
:103D2000CF931F92CF931F9229E02F931F927F92E0
:103D30001F925F921F92DF931F92CF931F92CF9398
:103D40001F9298E09F931F927F921F923F921F9223
:103D5000DF931F92CF931F92CF931F9227E02F9351
:103D60001F927F921F9296E99F931F92DF931F925B
:103D7000CF931F92CF931F924F921F927F921F92C9
:103D800029E62F931F92DF931F92CF931F92CF9319
:103D90001F922F921F922F921F928F931F92DF9349
:103DA0001F92CF931F92CF931F9284E08F931F9205
:103DB0007F921F925F921F92DF931F92CF931F9269
:103DC000CF931F9293E09F931F927F921F923F92F7
:103DD0001F92DF9320E230E041E050E061E070E0CC
:103DE00081E090E00E947A012FEF8DE399E4215069
:103DF00080409040E1F700C000008DB79EB78A591F
:103E00009F4F0FB6F8949EBF0FBE8DBF8091940157
:103E1000909195010E944201DF91CF911F910F91E6
:103E2000FF90EF90DF90CF90BF90AF909F908F90DA
:103E30007F906F905F904F903F902F9008952F92BA
:103E40003F924F925F926F927F928F929F92AF922A
:103E5000BF92CF92DF92EF92FF920F931F93CF9377
:103E6000DF931F920F2EFAE07F2EF02D7F921F928C
:103E700023EC2F931F92D0E2DF931F92C1E0CF93E8
:103E80001F92CF931F927F921F927F921F928CE37B
:103E90008F931F92DF931F92CF931F92CF931F9206
:103EA00039E03F931F927F921F920F2EF1EE5F2E0B
:103EB000F02D5F921F92DF931F92CF931F92CF93AB
:103EC0001F9298E09F931F927F921F9222242A9420
:103ED0002F921F92DF931F92CF931F92CF931F9227
:103EE00027E02F931F927F921F9236E93F931F92F4
:103EF000DF931F92CF931F92CF931F920F2EF6E066
:103F00004F2EF02D4F921F927F921F9299E69F9312
:103F10001F92DF931F92CF931F92CF931F9225E0A2
:103F20002F931F927F921F928F931F92DF931F9266
:103F3000CF931F92CF931F9234E03F931F927F92B3
:103F40001F925F921F92DF931F92CF931F92CF9386
:103F50001F9283E08F931F927F921F922F921F9246
:103F6000DF9388248394912CAA24A394B12C689481
:103F7000CC24C1F8D12C0F2EFAE0EF2EF12CF02D2D
:103F800006E910E020E230E041E050E061E070E05E
:103F900081E090E00E947A019FEF29E638E191509C
:103FA00020403040E1F700C000008DB79EB78A592D
:103FB0009F4F0FB6F8949EBF0FBE8DBF1F920F2E5E
:103FC000F4E66F2EF02D6F921F9293EC9F931F9249
:103FD000DF931F92CF931F92CF931F927F921F92D6
:103FE0007F921F920F2EF8E23F2EF02D3F921F92EC
:103FF000DF931F92CF931F92CF931F9229E02F93AD
:104000001F926F921F925F921F92DF931F92CF9326
:104010001F92CF931F9238E03F931F926F921F928F
:104020002F921F92DF931F92CF931F92CF931F92D5
:1040300087E08F931F926F921F9296E99F931F9232
:10404000DF931F92CF931F92CF931F924F921F9295
:104050006F921F9229E62F931F92DF931F92CF93A7
:104060001F92CF931F9235E03F931F927F921F9232
:104070003F921F92DF931F92CF931F92CF931F9275
:1040800084E08F931F926F921F925F921F92DF9333
:104090001F92CF931F92CF931F9293E09F931F92F3
:1040A0006F921F922F921F92DF930F2EF4E6EF2E46
:1040B000F12CF02D20E230E041E050E061E070E0D2
:1040C00081E090E00E947A012FEF3FE087E22150EB
:1040D00030408040E1F700C000002DB73EB72A59BC
:1040E0003F4F0FB6F8943EBF0FBE2DBF1F926F9289
:1040F0001F9233EC3F931F92DF931F92CF931F9237
:10410000CF931F927F921F926F921F923F921F92A6
:10411000DF931F92CF931F92CF931F9289E08F93CB
:104120001F926F921F925F921F92DF931F92CF9305
:104130001F92CF931F9298E09F931F927F921F929E
:104140008CED8F931F92DF931F92CF931F92CF938B
:104150001F9227E02F931F926F921F9236E93F9391
:104160001F92DF931F92CF931F92CF931F924F9274
:104170001F926F921F9299E69F931F92DF931F9257
:10418000CF931F92CF931F9225E02F931F926F9290
:104190001F923F921F92DF931F92CF931F92CF9354
:1041A0001F9234E03F931F926F921F925F921F9273
:1041B000DF931F92CF931F92CF931F9293E09F9311
:1041C0001F927F921F928F931F92DF9320E230E025
:1041D00041E050E061E070E081E090E00E947A010F
:1041E0002FEF33ED80E3215030408040E1F700C0F5
:1041F00000002DB73EB72A593F4F0FB6F8943EBF87
:104200000FBE2DBF1F926F921F9233EC3F931F92F0
:10421000DF931F92CF931F92CF931F927F921F9293
:104220002BE02F931F9292E89F931F92DF931F9290
:10423000CF931F92CF931F9289E08F931F927F920B
:104240001F9284EB8F931F92DF931F92CF931F9245
:10425000CF931F9238E03F931F924F921F925F922D
:104260001F92DF931F92CF931F92CF931F9237E03D
:104270003F931F926F921F9236E93F931F92DF93F5
:104280001F92CF931F92CF931F924F921F926F92C4
:104290001F9239E63F931F92DF931F92CF931F9295
:1042A000CF931F9235E03F931F922F931F929F93BE
:1042B0001F92DF931F92CF931F92CF931F9294E090
:1042C0009F931F927F921F928F931F92DF931F9253
:1042D000CF931F92CF931F9223E02F931F924F9261
:1042E0001F925F921F92DF9320E230E041E050E0A6
:1042F00061E070E081E090E00E947A013FEF8DE3A1
:1043000099E4315080409040E1F700C000002DB7A3
:104310003EB72A593F4F0FB6F8943EBF0FBE2DBF90
:1043200080919401909195010E944201DF91CF917B
:104330001F910F91FF90EF90DF90CF90BF90AF90C3
:104340009F908F907F906F905F904F903F902F90B5
:1043500008958F929F92AF92BF92CF92DF92EF9289
:10436000FF920F931F931F9234E63F931F9283ECAB
:104370008F931F9290E29F931F9281E08F931F92E1
:104380008F931F922AE02F931F92ECE0EF931F92DE
:1043900072E87F931F929F931F928F931F928F9328
:1043A0001F9229E02F931F926FE06F931F9254EB9F
:1043B0005F931F929F931F928F931F928F931F92D1
:1043C00028E02F931F9227E02F931F9241EE4F93E7
:1043D0001F929F931F928F931F928F931F922F93E1
:1043E0001F923F931F92F6E9FF931F929F931F9294
:1043F0008F931F928F931F92F6E0FF931F923F932C
:104400001F9239E63F931F929F931F928F931F92A3
:104410008F931F9235E03F931F92EF931F927F93EC
:104420001F929F931F928F931F928F931F9234E03E
:104430003F931F926F931F925F931F929F931F92C0
:104440008F931F928F931F9283E08F931F922F93CE
:104450001F924F931F929F9388248394912CAA2498
:10446000A394B12C6894CC24C1F8D12C0F2EF4E67F
:10447000EF2EF12CF02D06E910E020E230E041E0D3
:1044800050E061E070E081E090E00E947A012FEF5F
:1044900089E698E1215080409040E1F700C000009B
:1044A0008DB79EB78A599F4F0FB6F8949EBF0FBE27
:1044B0008DBF1F910F91FF90EF90DF90CF90BF9035
:1044C000AF909F908F9008958F929F92AF92BF92DE
:1044D000CF92DF92EF92FF920F931F931F9244E6C9
:1044E0004F931F9283EC8F931F9290E29F931F92A2
:1044F00081E08F931F928F931F922AE02F931F9238
:104500007CE07F931F9226E92F931F929F931F9227
:104510008F931F928F931F9239E03F931F926FE00A
:104520006F931F922F931F929F931F928F931F92AF
:104530008F931F9238E03F931F9237E03F931F9273
:1045400050EF5F931F929F931F928F931F928F93B1
:104550001F923F931F924F931F922F931F929F93EF
:104560001F928F931F928F931F92E6E0EF931F92FB
:104570004F931F9249E64F931F929F931F928F93E1
:104580001F928F931F9245E04F931F927F931F922C
:104590002F931F929F931F928F931F928F931F921F
:1045A00044E04F931F926F931F922F931F929F93FC
:1045B0001F928F931F928F931F9283E08F931F926E
:1045C0003F931F925F931F929F9388248394912C13
:1045D000AA24A394B12C6894CC24C1F8D12C0F2E1A
:1045E000F4E6EF2EF12CF02D06E910E020E230E0A9
:1045F00041E050E061E070E081E090E00E947A01EB
:104600002FEF89E698E1215080409040E1F700C00B
:1046100000008DB79EB78A599F4F0FB6F8949EBF82
:104620000FBE8DBF1F910F91FF90EF90DF90CF9045
:10463000BF90AF909F908F90089570D088F09F5753
:1046400090F0B92F9927B751A0F0D1F0660F771FDE
:10465000881F991F1AF0BA95C9F712C0B13081F0BE
:1046600077D0B1E0089574C0672F782F8827B85F9E
:1046700039F0B93FCCF3869577956795B395D9F71F
:104680003EF490958095709561957F4F8F4F9F4F29
:104690000895E89409C097FB3EF490958095709535
:1046A00061957F4F8F4F9F4F9923A9F0F92F96E97E
:1046B000BB279395F695879577956795B795F111F3
:1046C000F8CFFAF4BB0F11F460FF1BC06F5F7F4F90
:1046D0008F4F9F4F16C0882311F096E911C07723A2
:1046E00021F09EE8872F762F05C0662371F096E8AB
:1046F000862F70E060E02AF09A95660F771F881F7A
:10470000DAF7880F9695879597F9089557FD905891
:10471000440F551F59F05F3F71F04795880F97FB85
:10472000991F61F09F3F79F087950895121613063F
:104730001406551FF2CF4695F1DF08C0161617066E
:104740001806991FF1CF86957105610508940895A3
:10475000E894BB2766277727CB0197F908950BD0FC
:1047600078C069D028F06ED018F0952309F05AC0AF
:104770005FC01124EECFCADFA0F3959FD1F3950F50
:1047800050E0551F629FF001729FBB27F00DB11DD5
:10479000639FAA27F00DB11DAA1F649F6627B00D65
:1047A000A11D661F829F2227B00DA11D621F739F4E
:1047B000B00DA11D621F839FA00D611D221F749F5C
:1047C0003327A00D611D231F849F600D211D822FA3
:1047D000762F6A2F11249F5750408AF0E1F08823EA
:1047E0004AF0EE0FFF1FBB1F661F771F881F9150F7
:1047F0005040A9F79E3F510570F014C0AACF5F3F0B
:10480000ECF3983EDCF3869577956795B795F79529
:10481000E7959F5FC1F7FE2B880F911D96958795B1
:1048200097F9089597F99F6780E870E060E0089530
:104830009FEF80EC089500240A94161617061806B8
:104840000906089500240A94121613061406050694
:104850000895092E0394000C11F4882352F0BB0F25
:1048600040F4BF2B11F460FF04C06F5F7F4F8F4F88
:104870009F4F0895A1E21A2EAA1BBB1BFD010DC07C
:10488000AA1FBB1FEE1FFF1FA217B307E407F50700
:1048900020F0A21BB30BE40BF50B661F771F881FDC
:1048A000991F1A9469F760957095809590959B0172
:0C48B000AC01BD01CF010895F894FFCFCA
:0E48BC000000000200000000E100000000000B
:00000001FF
